:0F0FCD0054656D70657261747572653A002E001F
:100C4900120FA87BFF7A0F79CD7D017F01120F1E4C
:100C59007BFF7A0F79DA7D047F02120F1E120FBC17
:100C69007FCC120E8D7F4E120A07120FBC7FCC1259
:100C79000E8D7F44120A07120FBC7FCC120E8D7F96
:100C8900BE120A07120E218F248E238D228C211267
:100C990002F0AB07AA067529027D017F0212050140
:100CA900AF24AE23AD22AC211202F0AC07E412024C
:100CB900BCA804A905AA06AB07AF24AE23AD22AC94
:100CC900211200067B007A40791C78461200FB123B
:100CD90002F07C277D1012047EAA04AB05752D0451
:100CE9007D057F02120ACF120FBC7FEC120E8D0216
:020CF9000C737A
:0B0F7E00D2A5120F89D2A7AD80C2A738
:090F8900007F027EC7DEFEDFFCE2
:010F9200223C
:07100B00C2A6120F7EAF0523
:0110120022BB
:07101300D2A6120F7EAF050B
:01101A0022B3
:100F9300AD07C2A6C2A5120F898D80D2A7120F89F1
:050FA300C2A7020F8946
:0D0F41001202041202F08F2AE52A2430FF6C
:100F4E00AD07D2A6C2A5120F898D80D2A7120F8926
:050F5E00C2A7020F898B
:100FA8007F38120F937F0C120F937F06120F937FD7
:040FB80001020F9390
:0F0FDC00EDBF0104247F800224BFFF120F932278
:0A0FF800AC03120FDCAF04020F4E31
:060F1E008B258A268927BD
:100F2400E4FC120FDCAB25AA26A9278C827583006A
:0C0F3400120451FF6006120F4E0C80E901
:010F4000228E
:040ACF008A2B8B2CB7
:100AD300120FDC852D2FE52FD394005003020B8BCF
:100AE300E52F24FFFDE434FFFCE41202B78F378EB9
:100AF300368D358C347F007E007D207C411208F0DA
:100B0300C004C005C006C007AC2BAD2CE41202B76D
:100B1300D003D002D001D0001202041202F08F2EB3
:100B2300E52E2430FF120F4EE52F24FFFDE434FFA2
:100B3300FCE41202B78F378E368D358C347F007EFE
:100B4300007D207C411208F0C004C005C006C00728
:100B5300AC2EE41202BCD003D002D001D0001200AC
:100B6300FBC004C005C006C007AC2BAD2CE41202C9
:100B7300B7D003D002D001D0001200061202F08ECB
:080B83002B8F2C152F020AD95B
:010B8B002247
:040501008A278B2892
:10050500120FDCC3E5276480948050030205C17F88
:100515002B120F4E85292BE52BD394005003020691
:1005250079E52B24FFFDE434FFFCE41202B78F3795
:100535008E368D358C347F007E007D207C411208FF
:10054500F0C004C005C006C007AC27AD28EC1202F8
:10055500B7D003D002D001D000120F41E52B24FF04
:10056500FDE434FFFCE41202B78F378E368D358CEF
:10057500347F007E007D207C411208F0C004C00558
:10058500C006C007AC2AE41202BCD003D002D001D9
:10059500D0001200FBC004C005C006C007AC27ADE3
:1005A50028EC1202B7D003D002D001D00012000609
:0C05B5001202F08E278F28152B02051C67
:1005C100C3E49528F52DE49527F52C7F2D120F4EC8
:1005D10085292BE52BD394005003020679E52B24C2
:1005E100FFFDE434FFFCE41202B78F378E368D3500
:1005F1008C347F007E007D207C411208F0C004C055
:1006010005C006C007AC2CAD2DEC1202B7D003D04B
:1006110002D001D000120F41E52B24FFFDE434FF8D
:10062100FCE41202B78F378E368D358C347F007E15
:10063100007D207C411208F0C004C005C006C0073F
:10064100AC2AE41202BCD003D002D001D0001200C7
:10065100FBC004C005C006C007AC2CAD2DEC1202D6
:10066100B7D003D002D001D0001200061202F08EE2
:080671002C8F2D152B0205D47E
:01067900225E
:04067A008A408B41E6
:10067E00120FDCE54214F544E544D3940050030216
:10068E00077FAC44E41202BC8F378E368D358C3426
:10069E007F007E007D807C411208F0C004C005C042
:1006AE0006C007AC40AD41E41202B7D003D002D071
:1006BE0001D0001202041202F08F43E543C3940AE4
:1006CE00400DE543D3940F5006E54324378011E5E2
:1006DE0043C39400400EE543940A5008E54324308A
:1006EE00FF120F4EAC44E41202BC8F378E368D359E
:1006FE008C347F007E007D807C411208F0C004C0E7
:10070E0005C006C007AC43E41202BCD003D002D031
:10071E0001D0001200FBC004C005C006C007AC40EB
:10072E00AD41E41202B7D003D002D001D0001200C6
:10073E00061202F08E408F41C3E541940AE54094C3
:10074E00004010D3E541940FE54094005005EF248E
:10075E00378015C3E54094004012E541940AE54008
:10076E0094005008E5412430FF120F4E1544020646
:10077E0086E54264017035C3E541940AE540940074
:10078E004011D3E541940FE54094005006E5412415
:10079E00378015C3E54094004012E541940AE540C8
:0C07AE0094005008E5412430FF120F4E6B
:0107BA00221C
:040B8C008A488B49BF
:100B9000120FDC854A4BE54BD394005003020C48FE
:100BA000E54B24FFFDE434FFFCE41202B78F378EDF
:100BB000368D358C347F007E007D007C401208F03D
:100BC000C004C005C006C007AC48AD49E41202B776
:100BD000D003D002D001D0001202041202F08F4CD8
:100BE000E54C2430FF120F4EE54B24FFFDE434FFAB
:100BF000FCE41202B78F378E368D358C347F007E41
:100C0000007D007C401208F0C004C005C006C0078B
:100C1000AC4CE41202BCD003D002D001D0001200D0
:100C2000FBC004C005C006C007AC48AD49E41202D1
:100C3000B7D003D002D001D0001200061202F08E0D
:080C4000488F49154B020B9689
:010C48002289
:100F6300091000000000000000000003191B007FAF
:0A0F73000808000000000000000064
:100FBC00C2B77FE3DFFED2B77F2BDFFE7FE3DFFE1E
:010FCC002202
:020E8D008F25AF
:100E8F00E4F526752701120EF6E52564CC6057E5CB
:100E9F002564337032FFE4FEC2B700D2B70030B71B
:100EAF000D7401A806088002C333D8FC4226BE0782
:100EBF000974082FF8A626E4F5267D19DDFE0EBE6F
:100ECF0008D60FBF08D022E52564556019E52564C3
:100EDF00F06013E525B4EC0EC2B700D2B70020B70F
:060EEF0003C2A022D2A004
:010EF50022DA
:020A07008F2539
:100A0900752601E4F528120EF6E5256444701EE505
:100A1900267003020ACEC2B700D2B70030B703E48A
:100A2900F5267527191527E52760E480F8E525647B
:100A390048701EE5267003020ACEC2B700D2B7007D
:100A490030B703E4F5267527191527E52760E480F3
:100A5900F8E52564B4701AC2B700D2B70030B702FE
:100A6900F526E526FB7A00752D017D107F01020A26
:100A7900CFE52564B8604EE52564BE7034FFE4FE19
:100A8900C2B700D2B70030B70D7401A806088002BA
:100A9900C333D8FC4228BE070974102FF8A628E4EE
:100AA900F528752719D527FD0EBE08D40FBF09CE25
:100AB90022E525B44E0FAF19120EF6AF1A120EF633
:050AC900AF1B120EF648
:010ACE002205
:100E2100AC10E41202BC8F288E278D268C25E4FBA2
:100E3100FA798078411202048F288E278D268C251D
:100E4100AB28AA27A926A825C000C001C002C0035B
:100E5100E511540775F010A4FDACF0E41202B7D00F
:100E610003D002D001D00012000A8F288E278D26D0
:100E71008C25E51154F8600B1202A18F288E278D65
:0B0E8100268C25AF28AE27AD26AC253F
:010E8C002243
:0C0FEB00C2B77F02DFFED2B77F1DDFFE21
:010FF70022D7
:08100200C2B77F1DDFFED2B76B
:01100A0022C3
:020EF600AD0746
:100EF800E4FC74017E00A804088005C333CE33CE19
:100F0800D8F9FFEDFBEF5B6005120FEB80031210C1
:050F1800020CBC08DD25
:010F1D0022B1
:1000030002035CE86480F8E933E83360110460F0CC
:10001300ED33EC337009E8FCE9FDEAFEEBFF220463
:1000230060DED3EB9FEA9EE99DE8C2E78CF0C2F75E
:1000330095F0400CE8CCF8E9CDF9EACEFAEBCFFB2A
:1000430012032785D0F05804700320D5B3E8047059
:10005300075002B2D502036692D5EC0460F7E4CCF4
:10006300C0E0C398F8603B94186008400DD0E0FBF3
:1000730002033EE4FBFAC9FC8028E830E406E4C945
:10008300FBE4CAFCE830E305E4C9CACBFCE8540747
:100093006010F8C3E913F9EA13FAEB13FBEC13FC52
:1000A300D8F130F52FC3E49CFCEF9BFFEE9AFEEDF5
:1000B30099FDD0E0FBEF4E4D4C701222DB0302039F
:1000C30063EC2CFCEF33FFEE33FEED33FDED30E755
:1000D300EB02033EEF2BFFEE3AFEED39FDD0E0FBE2
:1000E30050130BBB0003020366ED13FDEE13FEEF8B
:0800F30013FFEC13FC02033EB5
:1000FB00EC4D6011E8497017ED33EC3304600DE4FF
:10010B00FCFFFEFD22E933E8330470F802035C12B6
:10011B00032758046009E4CC2481500628500902B7
:10012B000366284003020363C0E0EB4A7044B980C6
:10013B0006D0E0FB020352EF4E701CBD8008EBFFB4
:10014B00EAFEE9FD80EBE98DF0A4FEE5F00201E4A7
:10015B00E9CDF9EAFEEBFFEF89F0A4FCE5F0CE89DF
:10016B00F0A42EFFE435F0CD89F0A42DFEE435F09C
:10017B008067EF4E7005BD80D780C3EF8BF0A4ACCA
:10018B00F0EE8BF0A42CFCE435F0F8EF8AF0A42C05
:10019B00E5F038FCE433CB8DF0A42CFCE5F03BF818
:1001AB00EE8AF0A42CFCE5F038F8E433CF89F0A408
:1001BB002CFCE5F038CF3400CE89F0A42FFFE5F00E
:1001CB003EFEE433C98DF0A42EFEE5F039CD8AF066
:1001DB00A42FFFE5F03EFEE43DFD33D0E0FB5007DE
:1001EB000BBB000F020366EC2CFCEF33FFEE33FE70
:0601FB00ED33FD02033E9E
:10020100020366EC5D046005E85904700302035CB7
:10021100120327580460F6EC4860F2EC7004FDFE0E
:10022100FF22C860DB2481C85009C39860025006D0
:100231000203639850CAF582E9294B4A7005AB82E3
:1002410002035275F0007C1A7880C3EF9BEE9AEDA1
:1002510099400DC3EF9BFFEE9AFEED99FDE842F048
:10026100DC23ACF0D0E0FFD0E0FED0E0FDAB82209B
:10027100E7101BEB60BAEC2CFCEF33FFEE33FEED25
:1002810033FD02033EE803F830E705C0F075F000E6
:10029100EF2FFFEE33FEED33FD40B830E7C280AA09
:1002A100ED33EC33600A047003BD8004ECB2E7FC6B
:0102B100222A
:1002B20075F020800E75F010800575F0087D007EC7
:1002C200007F003392D530D5031204D3EC334010B3
:1002D200EF33FFEE33FEED33FDEC33FCD5F0ED22D0
:0E02E200E5F0247EA2D513CC92E7CDCEFF220C
:1002F000EDD2E7CD33EC3392D524814006E4FFFE06
:10030000FDFC22FCE4CFCECDCC24E0501174FF8064
:10031000EDC3CC13CCCD13CDCE13CECF13CF047001
:07032000F030D5DE0204D32A
:1008F0008F338E328D318C30E4FFFE7D807C3FABB8
:1009000033AA32A931A83012038B7009AF33AE324B
:10091000AD31AC3022AF33AE32AD31AC30120371F9
:10092000FBAF37AE36AD35AC34120371FFBF0108F3
:10093000E4FFFE7D807C3F22EF64046022EB6404D0
:10094000601DBB0127E4FFFEFDFCAB37AA36A935CD
:10095000A83412038B60084006E4FFFEFDFC2274FD
:10096000FFF537F536F535F5340209FEE4F538F5CF
:1009700039FFFEFDFCAB33AA32A931A83012038B3C
:10098000504BAF37AE36AD35AC341202F08E388FE7
:1009900039AC38AD39EC1202B7C8ECC8C9EDC9CAD8
:1009A000EECACBEFCBAF37AE36AD35AC3412000666
:1009B000E4FBFAF9F812038B70A5AF33AE32AD3118
:1009C000AC301202A18F338E328D318C30AF33AE0A
:1009D00032AD31AC301207EFAB37AA36A935A834A7
:1009E0001200FB120D338F378E368D358C34E5397E
:1009F00030E00B1202A18F378E368D358C34AF3735
:070A0000AE36AD35AC342227
:10032700E9D2E7C933E833F892D5EDD2E7CD33EC1C
:0703370033FC5002B2D52295
:10033E00EC30E7100FBF000C0EBE00080DBD000420
:10034E000BEB6014A2D5EB13FCED92E7FD2274FFCC
:10035E00FCFDFEFF22E480F8A2D574FF13FC7D8025
:03036E00E480EF39
:10037100ED33EC33601004700FED547F700574029F
:0A03810092E0227404220422E42218
:10038B0074F8CC6480CCC86480C8F58204604FC319
:10039B00EB9FF5F0EA9E42F0E99D42F0E89C45F0B8
:1003AB00603C501DE5825FFFE582D313CB5BCBF442
:1003BB002B5582FB50280ABA002409B9002008806B
:1003CB001DE5825BFBE582D313CF5FCFF4C3132F05
:1003DB005582FF50090EBE00050DBD00010CC3EB8D
:1003EB009FF5F0EA9E42F0E99D42F0E89C45F060F3
:0903FB0007CC4820E701B3EC2215
:100CFB0033DA929E35B16011377FE5FE3921848955
:100D0B003AAEC3FF3C1D955B3D6358473E75FDF006
:100D1B003F3172183F800000C2D502036602035CAC
:100D2B00BD80FA50F3020363ED33EC330460F17BC7
:100D3B003B7AAA79B8783F1200FBED33EC3392D5AE
:100D4B00247B5011A2D570DB500BED448024045052
:100D5B0004A2D580CEEFFBEEFAEDF9ECF81202F01F
:100D6B00EFF582F404FC1202BC12000AC082900C54
:100D7B00FB7409120413ED33CC33D0F092D525F06C
:0A0D8B00A2D57001C313CC13FD22A2
:1007BB003E9248DA3ECCCCCD3F2AAAAB400000009B
:1007CB003F8000003F9837F03FB504F33FD744FC20
:1007DB003E3172173EB172173F0515913EDE5BD964
:1007EB00D2008002C200EDD2E7F8CD33EC330470B7
:1007FB000BBD800592D502036602035C40FBD3144C
:10080B0060F2F5F07C3FEE7A00C39496C8948B406F
:10081B00230AC89469C8941A401A0AC89468C894E1
:10082B001F40110AC8945AC89425400805F07A0055
:10083B00CDC2E7CDC0F08C3A8D3B8E3C8F3DEA2389
:10084B0023C0E024CBF582E43407F5831204F112C4
:10085B00000AECC0E0EDC0E0EEC0E0EFC0E0120437
:10086B00E1A83AA93BAA3CAB3D120006D0E0FBD075
:10087B00E0FAD0E0F9D0E0B2E7F81202048C3A8D3E
:10088B003B8E3C8F3D9007BB7403120404A83AA91E
:10089B003BAA3CAB3D1200FBD0E0600F24D7F582A6
:1008AB00E43407F5831204F112000A8C3A8D3B8E67
:1008BB003C8F3DD0E0C3947FFDE49400FC1202B763
:1008CB007B187A727931783F1200FBA83AA93BAAC0
:1008DB003CAB3D12000A30000B7BD97A5B79DE789A
:0508EB003E1200FB229B
:10040400C0E0EFFBEEFAEDF9ECF81200FBD0E0F5FA
:10041400F0EFFBEEFAEDF9ECF81204E1A3A3A3A3C9
:10042400E8C0E0E9C0E0EAC0E0EBC0E0C0F01200E0
:10043400FB1204F1A3A3A3A312000AD0F0D0E0FBA3
:0D044400D0E0FAD0E0F9D0E0F8D5F0D422F5
:03000000020D9559
:0C0D9500787FE4F6D8FD75814C020DDC7F
:10045100BB010CE58229F582E5833AF583E0225060
:1004610006E92582F8E622BBFE06E92582F8E222AA
:0D047100E58229F582E5833AF583E49322C4
:10047E00BC000BBE0029EF8DF084FFADF022E4CC62
:10048E00F875F008EF2FFFEE33FEEC33FCEE9DEC2B
:10049E00984005FCEE9DFE0FD5F0E9E4CEFD22ED71
:1004AE00F8F5F0EE8420D21CFEADF075F008EF2FBB
:1004BE00FFED33FD4007985006D5F0F222C398FDAC
:0504CE000FD5F0EA2249
:0E04D300C3E49FFFE49EFEE49DFDE49CFC223A
:1004E100E493FC740193FD740293FE740393FF2261
:1004F100E493F8740193F9740293FA740393FB2261
:100DA100020C49E493A3F8E493A34003F68001F213
:100DB10008DFF48029E493A3F85407240CC8C33353
:100DC100C4540F4420C8834004F456800146F6DF22
:100DD100E4800B0102040810204080900F63E47E40
:100DE100019360BCA3FF543F30E509541FFEE49317
:100DF100A360010ECF54C025E060A840B8E493A3DE
:100E0100FAE493A3F8E493A3C8C582C8CAC583CA08
:100E1100F0A3C8C582C8CAC583CADFE9DEE780BEC0
:010F7D000073
:00000001FF
