:080E6E00010203040506070858
:1009B200120E0E7BFF7A0E796E7F01120C86E4FF17
:1009C200120CCD8F217F01120CCD8F227F02120CCF
:1009D200CD8F237F03120CCD8F247F04120CCD8F79
:1009E200257F05120CCD8F267F06120CCD8F277F17
:1009F20007120CCD8F28E521FB7A00752D027D01AF
:100A02007F01120625E522FB7A00752D027D047F07
:100A120001120625E523FB7A00752D027D077F0171
:100A2200120625E524FB7A00752D027D0A7F01124C
:100A32000625E525FB7A00752D027D017F0212064F
:100A420025E526FB7A00752D027D047F021206251C
:100A5200E527FB7A00752D027D077F02120625E548
:100A620028FB7A00752D027D0A7F0212062580FE80
:0B0DBA00D2A5120DC5D2A7AD80C2A7C4
:090DC500007F027EC7DEFEDFFCA8
:010DCE002202
:070E7600C2A6120DBAAF0580
:010E7D002252
:070E7E00D2A6120DBAAF0568
:010E8500224A
:100DCF00AD07C2A6C2A5120DC58D80D2A7120DC543
:050DDF00C2A7020DC5D2
:0D0D76001202041202DF8F0DE50D2430FF84
:100D8300AD07D2A6C2A5120DC58D80D2A7120DC57F
:050D9300C2A7020DC51E
:100E0E007F38120DCF7F0C120DCF7F06120DCF7FC4
:040E1E0001020DCFF1
:0F0E2200EDBF0104247F800224BFFF120DCF22F9
:0A0E6400AC03120E22AF04020D834E
:060D53008B3F8A4089413C
:100D5900E4FC120E22AB3FAA40A9418C82758300A4
:0C0D6900120451FF6006120D830C80E99B
:010D7500225B
:040A72008A138B1444
:100A7600120E22851517E517D394005003020B2E8C
:100A8600E51724FFFDE434FFFCE41202A68F388E3E
:100A9600378D368C357F007E007D207C4112089B89
:100AA600C004C005C006C007AC13AD14E41202A60C
:100AB600D003D002D001D0001202041202DF8F163A
:100AC600E5162430FF120D83E51724FFFDE434FFFD
:100AD600FCE41202A68F388E378D368C357F007E69
:100AE600007D207C4112089BC004C005C006C007DB
:100AF600AC16E41202ABD003D002D001D000120033
:100B0600FBC004C005C006C007AC13AD14E4120256
:100B1600A6D003D002D001D0001200061202DF8E4A
:080B2600138F141517020A7C5D
:010B2E0022A4
:0404AC008A0A8B0B22
:1004B000120E22C3E50A64809480500302056C7F0B
:1004C0002B120D83850C0EE50ED39400500302060B
:1004D00024E50E24FFFDE434FFFCE41202A68F386D
:1004E0008E378D368C357F007E007D207C41120852
:1004F0009BC004C005C006C007AC0AAD0BEC1202DD
:10050000A6D003D002D001D000120D76E50E24FF54
:10051000FDE434FFFCE41202A68F388E378D368C52
:10052000357F007E007D207C4112089BC004C00501
:10053000C006C007AC0DE41202ABD003D002D0015C
:10054000D0001200FBC004C005C006C007AC0AAD55
:100550000BEC1202A6D003D002D001D0001200068C
:0C0560001202DF8E0A8F0B150E0204C77A
:10056C00C3E4950BF510E4950AF50F7F2D120D835E
:10057C00850C0EE50ED394005003020624E50E24E0
:10058C00FFFDE434FFFCE41202A68F388E378D3663
:10059C008C357F007E007D207C4112089BC004C0FE
:1005AC0005C006C007AC0FAD10EC1202A6D003D0EC
:1005BC0002D001D000120D76E50E24FFFDE434FFCD
:1005CC00FCE41202A68F388E378D368C357F007E78
:1005DC00007D207C4112089BC004C005C006C007EA
:1005EC00AC0DE41202ABD003D002D001D00012004B
:1005FC00FBC004C005C006C007AC0FAD10EC120266
:10060C00A6D003D002D001D0001200061202DF8E59
:08061C000F8F10150E02057F7F
:0106240022B3
:040625008A2B8B2C65
:10062900120E22E52D14F52FE52FD3940050030265
:10063900072AAC2FE41202AB8F388E378D368C35F2
:100649007F007E007D807C4112089BC004C005C0EC
:1006590006C007AC2BAD2CE41202A6D003D002D001
:1006690001D0001202041202DF8F2EE52EC3940A74
:10067900400DE52ED3940F5006E52E24378011E561
:100689002EC39400400EE52E940A5008E52E24301E
:10069900FF120D83AC2FE41202AB8F388E378D36E3
:1006A9008C357F007E007D807C4112089BC004C090
:1006B90005C006C007AC2EE41202ABD003D002D0AD
:1006C90001D0001200FBC004C005C006C007AC2B56
:1006D900AD2CE41202A6D003D002D001D000120042
:1006E900061202DF8E2B8F2CC3E52C940AE52B947E
:1006F900004010D3E52C940FE52B94005005EF240E
:10070900378015C3E52B94004012E52C940AE52B9C
:1007190094005008E52C2430FF120D83152F020692
:1007290031E52D64017035C3E52C940AE52B94005D
:100739004011D3E52C940FE52B94005006E52C24A9
:10074900378015C3E52B94004012E52C940AE52B5C
:0C07590094005008E52C2430FF120D83A2
:010765002271
:040B2F008A1A8B1B78
:100B3300120E22851C1DE51DD394005003020BEBFE
:100B4300E51D24FFFDE434FFFCE41202A68F388E7A
:100B5300378D368C357F007E007D007C4012089BEC
:100B6300C004C005C006C007AC1AAD1BE41202A640
:100B7300D003D002D001D0001202041202DF8F1E74
:100B8300E51E2430FF120D83E51D24FFFDE434FF31
:100B9300FCE41202A68F388E378D368C357F007EAB
:100BA300007D007C4012089BC004C005C006C0073E
:100BB300AC1EE41202ABD003D002D001D00012006D
:100BC300FBC004C005C006C007AC1AAD1BE412028B
:100BD300A6D003D002D001D0001200061202DF8E8D
:080BE3001A8F1B151D020B39CE
:010BEB0022E7
:060E8600EF24FF92A122FF
:060E8C00EF24FF92A022FA
:050E9200A2A0E433FF03
:010E97002238
:0F0E31007F01120E8C120E861F120E8C020E867F
:0C0E4000E4FF120E8C0F120E86020E8CC6
:020D9800AE07A4
:100D9A00E4FD7480A805088002C313D8FC5EFF1224
:0F0DAA000E8C7F01120E861F120E860DBD08E300
:010DB9002217
:100CFD00E4FE7F01120E8CE4FD7F01120E86120EB2
:100D0D0092BF010D7480A805088002C313D8FC4260
:0C0D1D0006E4FF120E860DBD08DFAF06D5
:010D290022A7
:0C0E4C00120E8C7F01120E861F020E8613
:100DE4007F01120E8C120E86120E92AE07E4FF12D1
:040DF4000E86AF06B2
:010DF80022D8
:080C86008F298B2A8A2B892C8F
:100C8E00120E317FA0120D98120DE4AF29120D989D
:100C9E00120DE4E4F52DAB2AAA2BA92C852D827515
:100CAE008300120451FF120D98120DE4052DE52D4F
:0F0CBE00C3940840E1120E407F057E00020DF93D
:100D2A008F428D43120E317FA0120D98120DE4AF3F
:100D3A0042120D98120DE4AF43120D98120DE412EF
:090D4A000E407F057E00020DF948
:020CCD008F296D
:100CCF00120E317FA0120D98120DE4AF29120D985C
:100CDF00120DE4120E317FA1120D98120DE4120CB9
:0D0CEF00FD8F2A7F01120E4C120E40AF2A1D
:010CFC0022D5
:040E98007F02DFFEF8
:010E9C002233
:100DF900EF1FAC0670011E4C600A7D027CC7DCFE49
:040E0900DDFC80ECA0
:010E0D0022C2
:1000030002034BE86480F8E933E83360110460F0DD
:10001300ED33EC337009E8FCE9FDEAFEEBFF220463
:1000230060DED3EB9FEA9EE99DE8C2E78CF0C2F75E
:1000330095F0400CE8CCF8E9CDF9EACEFAEBCFFB2A
:1000430012031685D0F05804700320D5B3E804706A
:10005300075002B2D502035592D5EC0460F7E4CC05
:10006300C0E0C398F8603B94186008400DD0E0FBF3
:1000730002032DE4FBFAC9FC8028E830E406E4C956
:10008300FBE4CAFCE830E305E4C9CACBFCE8540747
:100093006010F8C3E913F9EA13FAEB13FBEC13FC52
:1000A300D8F130F52FC3E49CFCEF9BFFEE9AFEEDF5
:1000B30099FDD0E0FBEF4E4D4C701222DB0302039F
:1000C30052EC2CFCEF33FFEE33FEED33FDED30E766
:1000D300EB02032DEF2BFFEE3AFEED39FDD0E0FBF3
:1000E30050130BBB0003020355ED13FDEE13FEEF9C
:0800F30013FFEC13FC02032DC6
:1000FB00EC4D6011E8497017ED33EC3304600DE4FF
:10010B00FCFFFEFD22E933E8330470F802034B12C7
:10011B00031658046009E4CC2481500628500902C8
:10012B000355284003020352C0E0EB4A7044B980E8
:10013B0006D0E0FB020341EF4E701CBD8008EBFFC5
:10014B00EAFEE9FD80EBE98DF0A4FEE5F00201E4A7
:10015B00E9CDF9EAFEEBFFEF89F0A4FCE5F0CE89DF
:10016B00F0A42EFFE435F0CD89F0A42DFEE435F09C
:10017B008067EF4E7005BD80D780C3EF8BF0A4ACCA
:10018B00F0EE8BF0A42CFCE435F0F8EF8AF0A42C05
:10019B00E5F038FCE433CB8DF0A42CFCE5F03BF818
:1001AB00EE8AF0A42CFCE5F038F8E433CF89F0A408
:1001BB002CFCE5F038CF3400CE89F0A42FFFE5F00E
:1001CB003EFEE433C98DF0A42EFEE5F039CD8AF066
:1001DB00A42FFFE5F03EFEE43DFD33D0E0FB5007DE
:1001EB000BBB000F020355EC2CFCEF33FFEE33FE81
:0601FB00ED33FD02032DAF
:10020100020355EC5D046005E85904700302034BD9
:10021100120316580460F6EC4860F2EC7004FDFE1F
:10022100FF22C860DB2481C85009C39860025006D0
:100231000203529850CAF582E9294B4A7005AB82F4
:1002410002034175F0007C1A7880C3EF9BEE9AEDB2
:1002510099400DC3EF9BFFEE9AFEED99FDE842F048
:10026100DC23ACF0D0E0FFD0E0FED0E0FDAB82209B
:10027100E7101BEB60BAEC2CFCEF33FFEE33FEED25
:1002810033FD02032DE803F830E705C0F075F000F7
:10029100EF2FFFEE33FEED33FD40B830E7C280AA09
:1002A10075F020800E75F010800575F0087D007ED8
:1002B100007F003392D530D50312047EEC33401019
:1002C100EF33FFEE33FEED33FDEC33FCD5F0ED22E1
:0E02D100E5F0247EA2D513CC92E7CDCEFF221D
:1002DF00EDD2E7CD33EC3392D524814006E4FFFE17
:1002EF00FDFC22FCE4CFCECDCC24E0501174FF8076
:1002FF00EDC3CC13CCCD13CDCE13CECF13CF047013
:07030F00F030D5DE02047E90
:10089B008F348E338D328C31E4FFFE7D807C3FAB09
:1008AB0034AA33A932A83112037A7009AF34AE33AC
:1008BB00AD32AC3122AF34AE33AD32AC311203605A
:1008CB00FBAF38AE37AD36AC35120360FFBF010856
:1008DB00E4FFFE7D807C3F22EF64046022EB640426
:1008EB00601DBB0127E4FFFEFDFCAB38AA37A93620
:1008FB00A83512037A60084006E4FFFEFDFC227463
:10090B00FFF538F537F536F5350209A9E4F539F574
:10091B003AFFFEFDFCAB34AA33A932A83112037A9D
:10092B00504BAF38AE37AD36AC351202DF8E398F48
:10093B003AAC39AD3AEC1202A6C8ECC8C9EDC9CA3B
:10094B00EECACBEFCBAF38AE37AD36AC35120006B7
:10095B00E4FBFAF9F812037A70A5AF34AE33AD327B
:10096B00AC311203F38F348E338D328C31AF34AE06
:10097B0033AD32AC3112079AAB38AA37A936A8354A
:10098B001200FB120C248F388E378D368C35E53ADE
:10099B0030E00B1203F38F388E378D368C35AF3832
:0709AB00AE37AD36AC35227A
:10031600E9D2E7C933E833F892D5EDD2E7CD33EC2D
:0703260033FC5002B2D522A6
:10032D00EC30E7100FBF000C0EBE00080DBD000431
:10033D000BEB6014A2D5EB13FCED92E7FD2274FFDD
:10034D00FCFDFEFF22E480F8A2D574FF13FC7D8036
:03035D00E480EF4A
:10036000ED33EC33601004700FED547F70057402B0
:0A03700092E0227404220422E42229
:10037A0074F8CC6480CCC86480C8F58204604FC32A
:10038A00EB9FF5F0EA9E42F0E99D42F0E89C45F0C9
:10039A00603C501DE5825FFFE582D313CB5BCBF453
:1003AA002B5582FB50280ABA002409B9002008807C
:1003BA001DE5825BFBE582D313CF5FCFF4C3132F16
:1003CA005582FF50090EBE00050DBD00010CC3EB9E
:1003DA009FF5F0EA9E42F0E99D42F0E89C45F06004
:0903EA0007CC4820E701B3EC2226
:1003F300ED33EC33600A047003BD8004ECB2E7FC18
:0104030022D6
:100BEC0033DA929E35B16011377FE5FE3921848965
:100BFC003AAEC3FF3C1D955B3D6358473E75FDF017
:100C0C003F3172183F800000C2D502035502034BDE
:100C1C00BD80FA50F3020352ED33EC330460F17BE8
:100C2C003B7AAA79B8783F1200FBED33EC3392D5BE
:100C3C00247B5011A2D570DB500BED448024045062
:100C4C0004A2D580CEEFFBEEFAEDF9ECF81202DF40
:100C5C00EFF582F404FC1202AB12000AC082900B76
:100C6C00EC7409120413ED33CC33D0F092D525F08B
:0A0C7C00A2D57001C313CC13FD22B2
:100766003E9248DA3ECCCCCD3F2AAAAB40000000F0
:100776003F8000003F9837F03FB504F33FD744FC75
:100786003E3172173EB172173F0515913EDE5BD9B9
:10079600D2008002C200EDD2E7F8CD33EC3304700C
:1007A6000BBD800592D502035502034B40FBD314C3
:1007B60060F2F5F07C3FEE7A00C39496C8948B40C5
:1007C600230AC89469C8941A401A0AC89468C89437
:1007D6001F40110AC8945AC89425400805F07A00AB
:1007E600CDC2E7CDC0F08C3B8D3C8E3D8F3EEA23DB
:1007F60023C0E02476F582E43407F58312049C12C4
:10080600000AECC0E0EDC0E0EEC0E0EFC0E012048C
:100816008CA83BA93CAA3DAB3E120006D0E0FBD01B
:10082600E0FAD0E0F9D0E0B2E7F81202048C3B8D92
:100836003C8E3D8F3E9007667403120404A83BA9C4
:100846003CAA3DAB3E1200FBD0E0600F2482F5824D
:10085600E43407F58312049C12000A8C3B8D3C8E0F
:100866003D8F3ED0E0C3947FFDE49400FC1202A6C7
:100876007B187A727931783F1200FBA83BA93CAA13
:100886003DAB3E12000A30000B7BD97A5B79DE78ED
:050896003E1200FB22F0
:10040400C0E0EFFBEEFAEDF9ECF81200FBD0E0F5FA
:10041400F0EFFBEEFAEDF9ECF812048CA3A3A3A31E
:10042400E8C0E0E9C0E0EAC0E0EBC0E0C0F01200E0
:10043400FB12049CA3A3A3A312000AD0F0D0E0FBF8
:0D044400D0E0FAD0E0F9D0E0F8D5F0D422F5
:03000000020E5895
:0C0E5800787FE4F6D8FD7581430209B2F2
:10045100BB010CE58229F582E5833AF583E0225060
:1004610006E92582F8E622BBFE06E92582F8E222AA
:0D047100E58229F582E5833AF583E49322C4
:0E047E00C3E49FFFE49EFEE49DFDE49CFC228F
:10048C00E493FC740193FD740293FE740393FF22B6
:10049C00E493F8740193F9740293FA740393FB22B6
:00000001FF
