:041076003A002D000F
:1009CF00E4F521F522F523F524F525F526120FE898
:1009DF00752A23752B59752C567B257D097F25127A
:1009EF000E207BFF7A1079767D037F02120E767BC5
:1009FF00FF7A1079767D067F02120E767BFF7A10D2
:100A0F0079787D037F01120E767BFF7A1079787DDE
:100A1F00067F01120E76752A00752B00752C227534
:100A2F002D00752E00752F2375300075310075322E
:100A3F00247533007534007535257536007537000C
:100A4F007538267B007A007921120D78E521FB7A23
:100A5F0000752B027D017F01120AB8E522FB7A0097
:100A6F00752B027D047F01120AB8E523FB7A00750E
:100A7F002B027D077F01120AB8E526FB7A00752B42
:100A8F00027D077F02120AB8E525FB7A00752B025B
:100A9F007D047F02120AB8E524FB7A00752B027DD4
:090AAF00017F02120AB8020A25B7
:0B0F9400D2A5120F9FD2A7AD80C2A70C
:090F9F00007F027EC7DEFEDFFCCC
:010FA8002226
:07000300C2A6120F94AF0525
:01000A0022D3
:07102A00D2A6120F94AF05DE
:01103100229C
:100FA900AD07C2A6C2A5120F9F8D80D2A7120F9FAF
:050FB900C2A7020F9F1A
:0D0E990012020F1202EA8F42E5422430FFE0
:100EA600AD07D2A6C2A5120F9F8D80D2A7120F9FA3
:050EB600C2A7020F9F1E
:100FE8007F38120FA97F0C120FA97F06120FA97F55
:040FF80001020FA93A
:0F0FFC00EDBF0104247F800224BFFF120FA92242
:0A101700AC03120FFCAF04020EA69A
:060E76008B2E8A2F89304B
:100E7C00E4FC120FFCAB2EAA2FA9308C82758300D8
:0C0E8C0012045CFF6006120EA60C80E948
:010E98002237
:040AB8008A298B2AD2
:100ABC00120FFC852B2DE52DD394005003020B74E3
:100ACC00E52D24FFFDE434FFFCE41202B18F358EDA
:100ADC00348D338C327F007E007D207C411208B82F
:100AEC00C004C005C006C007AC29AD2AE41202B18F
:100AFC00D003D002D001D00012020F1202EA8F2CC8
:100B0C00E52C2430FF120EA6E52D24FFFDE434FF66
:100B1C00FCE41202B18F358E348D338C327F007E23
:100B2C00007D207C411208B8C004C005C006C00777
:100B3C00AC2CE41202B6D003D002D001D0001201CA
:100B4C0006C004C005C006C007AC29AD2AE41202D9
:100B5C00B1D003D002D001D0001200111202EA8EE3
:080B6C00298F2A152D020AC28F
:010B7400225E
:0404C9008A3F8B409B
:1004CD00120FFCC3E53F6480948050030205897FC1
:1004DD002B120EA6854143E543D39400500302062B
:1004ED0041E54324FFFDE434FFFCE41202B18F35F6
:1004FD008E348D338C327F007E007D207C4112083E
:10050D00B8C004C005C006C007AC3FAD40EC120238
:10051D00B1D003D002D001D000120E99E54324FFD3
:10052D00FDE434FFFCE41202B18F358E348D338C33
:10053D00327F007E007D207C411208B8C004C005CA
:10054D00C006C007AC42E41202B6D003D002D001FF
:10055D00D000120106C004C005C006C007AC3FADF7
:10056D0040EC1202B1D003D002D001D00012001124
:0C057D001202EA8E3F8F4015430204E496
:10058900C3E49540F545E4953FF5447F2D120EA649
:10059900854143E543D394005003020641E54324D2
:1005A900FFFDE434FFFCE41202B18F358E348D3344
:1005B9008C327F007E007D207C411208B8C004C0C7
:1005C90005C006C007AC44AD45EC1202B1D003D05A
:1005D90002D001D000120E99E54324FFFDE434FF57
:1005E900FCE41202B18F358E348D338C327F007E5C
:1005F900007D207C411208B8C004C005C006C007B0
:10060900AC42E41202B6D003D002D001D0001201EC
:1006190006C004C005C006C007AC44AD45EC1202D3
:10062900B1D003D002D001D0001200111202EA8E1B
:08063900448F45154302059CA6
:010641002296
:040642008A488B490E
:10064600120FFCE54A14F54CE54CD3940050030216
:100656000747AC4CE41202B68F358E348D338C329C
:100666007F007E007D807C411208B8C004C005C0B2
:1006760006C007AC48AD49E41202B1D003D002D09F
:1006860001D00012020F1202EA8F4BE54BC3940A07
:10069600400DE54BD3940F5006E54B24378011E50A
:1006A6004BC39400400EE54B940A5008E54B2430AA
:1006B600FF120EA6AC4CE41202B68F358E348D3383
:1006C6008C327F007E007D807C411208B8C004C059
:1006D60005C006C007AC4BE41202B6D003D002D068
:1006E60001D000120106C004C005C006C007AC4810
:1006F600AD49E41202B1D003D002D001D0001200FD
:10070600111202EA8E488F49C3E549940AE54894D6
:10071600004010D3E549940FE54894005005EF24B6
:10072600378015C3E54894004012E549940AE54828
:1007360094005008E5492430FF120EA6154C020617
:100746004EE54A64017035C3E549940AE5489400CC
:100756004011D3E549940FE54894005006E5492435
:10076600378015C3E54894004012E549940AE548E8
:0C07760094005008E5492430FF120EA644
:010782002254
:040B75008A508B51C6
:100B7900120FFC855253E553D394005003020C31F4
:100B8900E55324FFFDE434FFFCE41202B18F358EF6
:100B9900348D338C327F007E007D007C401208B892
:100BA900C004C005C006C007AC50AD51E41202B183
:100BB900D003D002D001D00012020F1202EA8F54E2
:100BC900E5542430FF120EA6E55324FFFDE434FF5B
:100BD900FCE41202B18F358E348D338C327F007E66
:100BE900007D007C401208B8C004C005C006C007DB
:100BF900AC54E41202B6D003D002D001D0001201E5
:100C090006C004C005C006C007AC50AD51E41202CD
:100C1900B1D003D002D001D0001200111202EA8E25
:080C2900508F511553020B7F9F
:010C310022A0
:06105C00504D00414D0063
:05106200C2B5C2B62278
:0410210024FF92B462
:05102500D2B6021071BB
:05106700C2B602107189
:040D23008F2E8D2F53
:100D2700D2B5E4F53074017E00A830088005C333DE
:100D3700CE33CED8F9FFEF552E12102112106705CA
:100D470030E530C3940840DDE4F53074017E00A837
:100D570030088005C333CE33CED8F9FFEF552F12B5
:100D670010211210670530E530C3940840DDC2B585
:010D77002259
:020CCC008F3A5D
:100CCE00E4F53CD2B5F53B74017E00A83B088005E7
:100CDE00C333CE33CED8F9FFEF553A12102112108E
:100CEE0067053BE53BC3940840DDE4F53B12102558
:100CFE0030B40FAF3B7401A807088002C333D8FC91
:100D0E00423C121067053BE53BC3940840DFC2B579
:040D1E00C2B4AF3C70
:010D220022AE
:07103200AD077F8E020D23C4
:07103900AD077F80020D23CB
:100EBB00E4F5397F81120CCCEF540F2539F539EF5E
:0E0ECB005470C4540F75F00AA42539F539FF90
:010ED90022F6
:07104000AD077F82020D23C2
:100EDA00E4F5397F83120CCCEF540F2539F539EF3D
:0E0EEA005470C4540F75F00AA42539F539FF71
:010EF80022D7
:100E51008F2DAD2D7F84120D23E52D30E7167BFFFD
:100E610030E5067A10795C80047A10795F7D0A7F1B
:050E710001120E7622C3
:100EF900E4F5397F85120CCCEF540F2539F539EF1C
:0E0F09005430C4540F75F00AA42539F539FF91
:010F170022B7
:100F1800E4F51A7F85120CCCEF540F251AF51AEF59
:0E0F28005410C4540F75F00AA4251AF51AFFD0
:010F36002298
:07104700AD077F8C020D23B1
:100F3700E4F5397F8D120CCCEF540F2539F539EFD5
:0E0F470054F0C4540F75F00AA42539F539FF93
:010F55002279
:07104E00AD077F88020D23AE
:100F5600E4F5397F89120CCCEF540F2539F539EFBA
:0E0F66005410C4540F75F00AA42539F539FF54
:010F7400225A
:07105500AD077F86020D23A9
:100F7500E4F5397F87120CCCEF540F2539F539EF9D
:0E0F85005430C4540F75F00AA42539F539FF15
:010F9300223B
:100E20008F278D288B29121062E4FF121032AF2712
:100E3000121047AF2812104EAF29121055AF2A12C8
:100E40000E51AF2B121040AF2C1210397F800210C0
:010E5000326F
:100D78008B278A288929120F37AB27AA28A929EF98
:100D8800120489120F56AB2AAA2BA92CEF12048938
:100D9800120F75AB2DAA2EA92FEF120489120EF986
:100DA800AB30AA31A932EF120489120EDAAB33AA9A
:100DB80034A935EF120489120EBBAB36AA37A9380D
:040DC800EF020489A9
:100DCC008B088A09890A120F37AB08AA09A90AEFFE
:100DDC00120489120F56AB0BAA0CA90DEF12048941
:100DEC00120F75AB0EAA0FA910EF120489120F186F
:100DFC00AB11AA12A913EF120489120EDAAB14AAC2
:100E0C0015A916EF120489120EBBAB17AA18A91953
:040E1C00EF02048954
:100FBE005389F0438901758A91758CFFD2A9D2AFFE
:050FCE00C2B9D28C2223
:03000B0002106C74
:05106C00D2B6C2B6324D
:041071007F02DFFE1D
:011075002258
:100FD300EF1FAC0670011E4C600A7D027CC7DCFE6D
:040FE300DDFC80ECC5
:010FE70022E7
:10000E00020356E86480F8E933E83360110460F0C7
:10001E00ED33EC337009E8FCE9FDEAFEEBFF220458
:10002E0060DED3EB9FEA9EE99DE8C2E78CF0C2F753
:10003E0095F0400CE8CCF8E9CDF9EACEFAEBCFFB1F
:10004E0012032185D0F05804700320D5B3E8047054
:10005E00075002B2D502036092D5EC0460F7E4CCEF
:10006E00C0E0C398F8603B94186008400DD0E0FBE8
:10007E00020338E4FBFAC9FC8028E830E406E4C940
:10008E00FBE4CAFCE830E305E4C9CACBFCE854073C
:10009E006010F8C3E913F9EA13FAEB13FBEC13FC47
:1000AE00D8F130F52FC3E49CFCEF9BFFEE9AFEEDEA
:1000BE0099FDD0E0FBEF4E4D4C701222DB03020394
:1000CE005DEC2CFCEF33FFEE33FEED33FDED30E750
:1000DE00EB020338EF2BFFEE3AFEED39FDD0E0FBDD
:1000EE0050130BBB0003020360ED13FDEE13FEEF86
:0800FE0013FFEC13FC020338B0
:10010600EC4D6011E8497017ED33EC3304600DE4F3
:10011600FCFFFEFD22E933E8330470F802035612B1
:10012600032158046009E4CC2481500628500902B2
:10013600036028400302035DC0E0EB4A7044B980C7
:1001460006D0E0FB02034CEF4E701CBD8008EBFFAF
:10015600EAFEE9FD80EBE98DF0A4FEE5F00201EF91
:10016600E9CDF9EAFEEBFFEF89F0A4FCE5F0CE89D4
:10017600F0A42EFFE435F0CD89F0A42DFEE435F091
:100186008067EF4E7005BD80D780C3EF8BF0A4ACBF
:10019600F0EE8BF0A42CFCE435F0F8EF8AF0A42CFA
:1001A600E5F038FCE433CB8DF0A42CFCE5F03BF80D
:1001B600EE8AF0A42CFCE5F038F8E433CF89F0A4FD
:1001C6002CFCE5F038CF3400CE89F0A42FFFE5F003
:1001D6003EFEE433C98DF0A42EFEE5F039CD8AF05B
:1001E600A42FFFE5F03EFEE43DFD33D0E0FB5007D3
:1001F6000BBB000F020360EC2CFCEF33FFEE33FE6B
:06020600ED33FD02033898
:10020C00020360EC5D046005E859047003020356B8
:10021C00120321580460F6EC4860F2EC7004FDFE09
:10022C00FF22C860DB2481C85009C39860025006C5
:10023C0002035D9850CAF582E9294B4A7005AB82DE
:10024C0002034C75F0007C1A7880C3EF9BEE9AED9C
:10025C0099400DC3EF9BFFEE9AFEED99FDE842F03D
:10026C00DC23ACF0D0E0FFD0E0FED0E0FDAB822090
:10027C00E7101BEB60BAEC2CFCEF33FFEE33FEED1A
:10028C0033FD020338E803F830E705C0F075F000E1
:10029C00EF2FFFEE33FEED33FD40B830E7C280AAFE
:1002AC0075F020800E75F010800575F0087D007ECD
:1002BC00007F003392D530D50312049BEC334010F1
:1002CC00EF33FFEE33FEED33FDEC33FCD5F0ED22D6
:0E02DC00E5F0247EA2D513CC92E7CDCEFF2212
:1002EA00EDD2E7CD33EC3392D524814006E4FFFE0C
:1002FA00FDFC22FCE4CFCECDCC24E0501174FF806B
:10030A00EDC3CC13CCCD13CDCE13CECF13CF047007
:07031A00F030D5DE02049B68
:1008B8008F318E308D2F8C2EE4FFFE7D807C3FABF8
:1008C80031AA30A92FA82E1203857009AF31AE3096
:1008D800AD2FAC2E22AF31AE30AD2FAC2E12036B44
:1008E800FBAF35AE34AD33AC3212036BFFBF01083A
:1008F800E4FFFE7D807C3F22EF64046022EB640409
:10090800601DBB0127E4FFFEFDFCAB35AA34A9330B
:10091800A83212038560084006E4FFFEFDFC22743D
:10092800FFF535F534F533F5320209C6E4F536F549
:1009380037FFFEFDFCAB31AA30A92FA82E12038584
:10094800504BAF35AE34AD33AC321202EA8E368F2F
:1009580037AC36AD37EC1202B1C8ECC8C9EDC9CA1C
:10096800EECACBEFCBAF35AE34AD33AC321200119B
:10097800E4FBFAF9F812038570A5AF31AE30AD2F5C
:10098800AC2E1203FE8F318E308D2F8C2EAF31AEF0
:1009980030AD2FAC2E1207B7AB35AA34A933A83225
:1009A800120106120C6A8F358E348D338C32E5377E
:1009B80030E00B1203FE8F358E348D338C32AF3519
:0709C800AE34AD33AC322266
:10032100E9D2E7C933E833F892D5EDD2E7CD33EC22
:0703310033FC5002B2D5229B
:10033800EC30E7100FBF000C0EBE00080DBD000426
:100348000BEB6014A2D5EB13FCED92E7FD2274FFD2
:10035800FCFDFEFF22E480F8A2D574FF13FC7D802B
:03036800E480EF3F
:10036B00ED33EC33601004700FED547F70057402A5
:0A037B0092E0227404220422E4221E
:1003850074F8CC6480CCC86480C8F58204604FC31F
:10039500EB9FF5F0EA9E42F0E99D42F0E89C45F0BE
:1003A500603C501DE5825FFFE582D313CB5BCBF448
:1003B5002B5582FB50280ABA002409B90020088071
:1003C5001DE5825BFBE582D313CF5FCFF4C3132F0B
:1003D5005582FF50090EBE00050DBD00010CC3EB93
:1003E5009FF5F0EA9E42F0E99D42F0E89C45F060F9
:0903F50007CC4820E701B3EC221B
:1003FE00ED33EC33600A047003BD8004ECB2E7FC0D
:01040E0022CB
:100C320033DA929E35B16011377FE5FE392184891E
:100C42003AAEC3FF3C1D955B3D6358473E75FDF0D0
:100C52003F3172183F800000C2D502036002035682
:100C6200BD80FA50F302035DED33EC330460F17B97
:100C72003B7AAA79B8783F120106ED33EC3392D56C
:100C8200247B5011A2D570DB500BED44802404501C
:100C920004A2D580CEEFFBEEFAEDF9ECF81202EAEF
:100CA200EFF582F404FC1202B6120015C082900C19
:100CB20032740912041EED33CC33D0F092D525F0F4
:0A0CC200A2D57001C313CC13FD226C
:100783003E9248DA3ECCCCCD3F2AAAAB40000000D3
:100793003F8000003F9837F03FB504F33FD744FC58
:1007A3003E3172173EB172173F0515913EDE5BD99C
:1007B300D2008002C200EDD2E7F8CD33EC330470EF
:1007C3000BBD800592D502036002035640FBD31490
:1007D30060F2F5F07C3FEE7A00C39496C8948B40A8
:1007E300230AC89469C8941A401A0AC89468C8941A
:1007F3001F40110AC8945AC89425400805F07A008E
:10080300CDC2E7CDC0F08C388D398E3A8F3BEA23C9
:1008130023C0E02493F582E43407F5831204B9126C
:100823000015ECC0E0EDC0E0EEC0E0EFC0E0120464
:10083300A9A838A939AA3AAB3B120011D0E0FBD0E2
:10084300E0FAD0E0F9D0E0B2E7F812020F8C388D6D
:10085300398E3A8F3B900783740312040FA838A98B
:1008630039AA3AAB3B120106D0E0600F249FF58210
:10087300E43407F5831204B91200158C388D398ED0
:100883003A8F3BD0E0C3947FFDE49400FC1202B1A5
:100893007B187A727931783F120106A838A939AAF0
:1008A3003AAB3B12001530000B7BD97A5B79DE78CB
:0508B3003E12010622C7
:10040F00C0E0EFFBEEFAEDF9ECF8120106D0E0F5E3
:10041F00F0EFFBEEFAEDF9ECF81204A9A3A3A3A3F6
:10042F00E8C0E0E9C0E0EAC0E0EBC0E0C0F01201D4
:10043F00061204B9A3A3A3A3120015D0F0D0E0FBBA
:0D044F00D0E0FAD0E0F9D0E0F8D5F0D422EA
:0300000002100BE0
:0C100B00787FE4F6D8FD7581540209CF0F
:10045C00BB010CE58229F582E5833AF583E0225055
:10046C0006E92582F8E622BBFE06E92582F8E2229F
:0D047C00E58229F582E5833AF583E49322B9
:10048900BB010689828A83F0225002F722BBFE0152
:02049900F3224C
:0E049B00C3E49FFFE49EFEE49DFDE49CFC2272
:1004A900E493FC740193FD740293FE740393FF2299
:1004B900E493F8740193F9740293FA740393FB2299
:00000001FF
